:100A5A00E4FDFCC3ED9FEC9E5015E4FBFA0BBB00D2
:0F0A6A00010ABA04F8BBFBF50DBD00010C80E4D6
:010A7900225A
:100A7A00E4F58CF58AC2B5D2B5D2B5D2B5D2B5D223
:0E0A8A00B5D2B5D2B5D2B5D2B5D2B5C2B5226D
:100A9800E4F58CF58AC2B4D2B4D2B4D2B4D2B4D20A
:0E0AA800B4D2B4D2B4D2B4D2B4D2B4C2B42256
:100AB600E4F58CF58AC2B3D2B3D2B3D2B3D2B3D2F1
:0E0AC600B3D2B3D2B3D2B3D2B3D2B3C2B3223F
:100943007F607EEA120A7A20B20BEF1F70011EEF5E
:100953004E70F48019E4F58CF58AD28C7EEA7F60C0
:1009630030B210EF1F70011EEF4E70F4C28C7E0385
:100973007FE722C28CAF8CE4FCFDFE78081208CE20
:10098300A804A905AA06AB07AF8AEB4FFFEAFEE965
:0C099300FDE8FCE47B3AFAF9F812083C9D
:01099F002235
:1009A0007F607EEA120A9820B10BEF1F70011EEFE4
:1009B0004E70F48019E4F58CF58AD28C7EEA7F6063
:1009C00030B110EF1F70011EEF4E70F4C28C7E0329
:1009D0007FE722C28CAF8CE4FCFDFE78081208CEC3
:1009E000A804A905AA06AB07AF8AEB4FFFEAFEE908
:0C09F000FDE8FCE47B3AFAF9F812083C40
:0109FC0022D8
:1009FD007F607EEA120AB620B00BEF1F70011EEF6A
:100A0D004E70F48019E4F58CF58AD28C7EEA7F6005
:100A1D0030B010EF1F70011EEF4E70F4C28C7E03CC
:100A2D007FE722C28CAF8CE4FCFDFE78081208CE65
:100A3D00A804A905AA06AB07AF8AEB4FFFEAFEE9AA
:0C0A4D00FDE8FCE47B3AFAF9F812083CE2
:010A5900227A
:090AE000D290C291C292C293228D
:090AE900C290D291C292C2932284
:090AF200C290C291D292D293226B
:1008E100758901C28CE4F58CF58AC290C291C292DD
:1008F100C2931209A08E0C8F0D1209438E0A8F0B21
:100901001209FD8E088F09C290C291C292C293C38F
:10091100E50D9428E50C94005003120AE0C3E50BA1
:100921009428E50A94005003120AE9C3E5099428C2
:10093100E50894005003120AF27F647E00120A5AFD
:0209410080B084
:03000000020AD41D
:0C0AD400787FE4F6D8FD75810D0208E182
:1008000075F008758200EF2FFFEE33FECD33CDCCAF
:1008100033CCC58233C5829BED9AEC99E582984032
:100820000CF582EE9BFEED9AFDEC99FC0FD5F0D60F
:10083000E4CEFBE4CDFAE4CCF9A88222B800C1B939
:100840000059BA002DEC8BF084CFCECDFCE5F0CB77
:10085000F97818EF2FFFEE33FEED33FDEC33FCEBB0
:1008600033FB10D703994004EB99FB0FD8E5E4F96B
:10087000FA227818EF2FFFEE33FEED33FDEC33FC58
:10088000C933C910D7059BE99A4007EC9BFCE99A4C
:10089000F90FD8E0E4C9FAE4CCFB2275F010EF2F91
:1008A000FFEE33FEED33FDCC33CCC833C810D70791
:1008B0009BEC9AE899400AED9BFDEC9AFCE899F8CC
:0E08C0000FD5F0DAE4CDFBE4CCFAE4C8F9225F
:1008CE00E8600FEFC333FFEE33FEED33FDEC33FC88
:0308DE00D8F1222C
:00000001FF
